{
  "contractName": "PollContract",
  "abi": [
    {
      "anonymous": false,
      "inputs": [
        {
          "indexed": false,
          "internalType": "uint256",
          "name": "_pollId",
          "type": "uint256"
        }
      ],
      "name": "PollCreated",
      "type": "event"
    },
    {
      "constant": false,
      "inputs": [
        {
          "internalType": "string",
          "name": "_question",
          "type": "string"
        },
        {
          "internalType": "string",
          "name": "_thumb",
          "type": "string"
        },
        {
          "internalType": "bytes32[]",
          "name": "_options",
          "type": "bytes32[]"
        }
      ],
      "name": "createPoll",
      "outputs": [],
      "payable": false,
      "stateMutability": "nonpayable",
      "type": "function"
    },
    {
      "constant": true,
      "inputs": [
        {
          "internalType": "uint256",
          "name": "_pollId",
          "type": "uint256"
        }
      ],
      "name": "getPoll",
      "outputs": [
        {
          "internalType": "uint256",
          "name": "",
          "type": "uint256"
        },
        {
          "internalType": "string",
          "name": "",
          "type": "string"
        },
        {
          "internalType": "string",
          "name": "",
          "type": "string"
        },
        {
          "internalType": "uint64[]",
          "name": "",
          "type": "uint64[]"
        },
        {
          "internalType": "bytes32[]",
          "name": "",
          "type": "bytes32[]"
        }
      ],
      "payable": false,
      "stateMutability": "view",
      "type": "function"
    },
    {
      "constant": false,
      "inputs": [
        {
          "internalType": "uint256",
          "name": "_pollId",
          "type": "uint256"
        },
        {
          "internalType": "uint64",
          "name": "_vote",
          "type": "uint64"
        }
      ],
      "name": "vote",
      "outputs": [],
      "payable": false,
      "stateMutability": "nonpayable",
      "type": "function"
    },
    {
      "constant": true,
      "inputs": [
        {
          "internalType": "address",
          "name": "_voterId",
          "type": "address"
        }
      ],
      "name": "getVoter",
      "outputs": [
        {
          "internalType": "address",
          "name": "",
          "type": "address"
        },
        {
          "internalType": "uint256[]",
          "name": "",
          "type": "uint256[]"
        }
      ],
      "payable": false,
      "stateMutability": "view",
      "type": "function"
    },
    {
      "constant": true,
      "inputs": [],
      "name": "getTotalVotes",
      "outputs": [
        {
          "internalType": "uint256",
          "name": "",
          "type": "uint256"
        }
      ],
      "payable": false,
      "stateMutability": "view",
      "type": "function"
    }
  ],
  "bytecode": "0x608060405234801561001057600080fd5b5061117c806100206000396000f3fe608060405234801561001057600080fd5b50600436106100575760003560e01c80631a8cbcaa1461005c5780637ba91041146102065780639a0e7d66146103ec578063d4f50f981461040a578063ece71c91146104d6575b600080fd5b6100886004803603602081101561007257600080fd5b8101908080359060200190929190505050610518565b6040518086815260200180602001806020018060200180602001858103855289818151815260200191508051906020019080838360005b838110156100da5780820151818401526020810190506100bf565b50505050905090810190601f1680156101075780820380516001836020036101000a031916815260200191505b50858103845288818151815260200191508051906020019080838360005b83811015610140578082015181840152602081019050610125565b50505050905090810190601f16801561016d5780820380516001836020036101000a031916815260200191505b50858103835287818151815260200191508051906020019060200280838360005b838110156101a957808201518184015260208101905061018e565b50505050905001858103825286818151815260200191508051906020019060200280838360005b838110156101eb5780820151818401526020810190506101d0565b50505050905001995050505050505050505060405180910390f35b6103ea6004803603606081101561021c57600080fd5b810190808035906020019064010000000081111561023957600080fd5b82018360208201111561024b57600080fd5b8035906020019184600183028401116401000000008311171561026d57600080fd5b91908080601f016020809104026020016040519081016040528093929190818152602001838380828437600081840152601f19601f820116905080830192505050505050509192919290803590602001906401000000008111156102d057600080fd5b8201836020820111156102e257600080fd5b8035906020019184600183028401116401000000008311171561030457600080fd5b91908080601f016020809104026020016040519081016040528093929190818152602001838380828437600081840152601f19601f8201169050808301925050505050505091929192908035906020019064010000000081111561036757600080fd5b82018360208201111561037957600080fd5b8035906020019184602083028401116401000000008311171561039b57600080fd5b919080806020026020016040519081016040528093929190818152602001838360200280828437600081840152601f19601f820116905080830192505050505050509192919290505050610861565b005b6103f4610aa6565b6040518082815260200191505060405180910390f35b61044c6004803603602081101561042057600080fd5b81019080803573ffffffffffffffffffffffffffffffffffffffff169060200190929190505050610ab2565b604051808373ffffffffffffffffffffffffffffffffffffffff1673ffffffffffffffffffffffffffffffffffffffff16815260200180602001828103825283818151815260200191508051906020019060200280838360005b838110156104c15780820151818401526020810190506104a6565b50505050905001935050505060405180910390f35b610516600480360360408110156104ec57600080fd5b8101908080359060200190929190803567ffffffffffffffff169060200190929190505050610bb6565b005b600060608060608060008054905086108015610535575060008610155b6105a7576040517f08c379a000000000000000000000000000000000000000000000000000000000815260040180806020018281038252600d8152602001807f4e6f20706f6c6c20666f756e640000000000000000000000000000000000000081525060200191505060405180910390fd5b600086815481106105b457fe5b906000526020600020906005020160000154600087815481106105d357fe5b9060005260206000209060050201600101600088815481106105f157fe5b90600052602060002090600502016002016000898154811061060f57fe5b906000526020600020906005020160030160008a8154811061062d57fe5b9060005260206000209060050201600401838054600181600116156101000203166002900480601f0160208091040260200160405190810160405280929190818152602001828054600181600116156101000203166002900480156106d35780601f106106a8576101008083540402835291602001916106d3565b820191906000526020600020905b8154815290600101906020018083116106b657829003601f168201915b50505050509350828054600181600116156101000203166002900480601f01602080910402602001604051908101604052809291908181526020018280546001816001161561010002031660029004801561076f5780601f106107445761010080835404028352916020019161076f565b820191906000526020600020905b81548152906001019060200180831161075257829003601f168201915b50505050509250818054806020026020016040519081016040528092919081815260200182805480156107f557602002820191906000526020600020906000905b82829054906101000a900467ffffffffffffffff1667ffffffffffffffff16815260200190600801906020826007010492830192600103820291508084116107b05790505b505050505091508080548060200260200160405190810160405280929190818152602001828054801561084757602002820191906000526020600020905b815481526020019060010190808311610833575b505050505090509450945094509450945091939590929450565b60008351116108d8576040517f08c379a000000000000000000000000000000000000000000000000000000000815260040180806020018281038252600e8152602001807f456d707479207175657374696f6e00000000000000000000000000000000000081525060200191505060405180910390fd5b600181511161094f576040517f08c379a000000000000000000000000000000000000000000000000000000000815260040180806020018281038252601b8152602001807f4174206c656173742032206f7074696f6e73207265717569726564000000000081525060200191505060405180910390fd5b600080805490509050610960610f0e565b6040518060a0016040528083815260200186815260200185815260200184516040519080825280602002602001820160405280156109ad5781602001602082028038833980820191505090505b50815260200184815250905060008190806001815401808255809150509060018203906000526020600020906005020160009091929091909150600082015181600001556020820151816001019080519060200190610a0d929190610f3d565b506040820151816002019080519060200190610a2a929190610f3d565b506060820151816003019080519060200190610a47929190610fbd565b506080820151816004019080519060200190610a64929190611079565b505050507fab0309b6731a34e8750174d3c2c9591a34a2bf0c1425a30b34122be08d050739826040518082815260200191505060405180910390a15050505050565b60008080549050905090565b60006060600160008473ffffffffffffffffffffffffffffffffffffffff1673ffffffffffffffffffffffffffffffffffffffff16815260200190815260200160002060000160009054906101000a900473ffffffffffffffffffffffffffffffffffffffff16600160008573ffffffffffffffffffffffffffffffffffffffff1673ffffffffffffffffffffffffffffffffffffffff16815260200190815260200160002060010180805480602002602001604051908101604052809291908181526020018280548015610ba657602002820191906000526020600020905b815481526020019060010190808311610b92575b5050505050905091509150915091565b6000805490508210610c30576040517f08c379a00000000000000000000000000000000000000000000000000000000081526004018080602001828103825260138152602001807f506f6c6c20646f6573206e6f742065786973740000000000000000000000000081525060200191505060405180910390fd5b60008281548110610c3d57fe5b9060005260206000209060050201600401805490508167ffffffffffffffff1610610cd0576040517f08c379a000000000000000000000000000000000000000000000000000000000815260040180806020018281038252600c8152602001807f496e76616c696420766f7465000000000000000000000000000000000000000081525060200191505060405180910390fd5b60001515600160003373ffffffffffffffffffffffffffffffffffffffff1673ffffffffffffffffffffffffffffffffffffffff168152602001908152602001600020600201600084815260200190815260200160002060009054906101000a900460ff16151514610daa576040517f08c379a00000000000000000000000000000000000000000000000000000000081526004018080602001828103825260118152602001807f596f7520616c726561647920766f74656400000000000000000000000000000081525060200191505060405180910390fd5b600160008381548110610db957fe5b90600052602060002090600502016003018267ffffffffffffffff1681548110610ddf57fe5b90600052602060002090600491828204019190066008028282829054906101000a900467ffffffffffffffff160192506101000a81548167ffffffffffffffff021916908367ffffffffffffffff160217905550600160003373ffffffffffffffffffffffffffffffffffffffff1673ffffffffffffffffffffffffffffffffffffffff16815260200190815260200160002060010182908060018154018082558091505090600182039060005260206000200160009091929091909150555060018060003373ffffffffffffffffffffffffffffffffffffffff1673ffffffffffffffffffffffffffffffffffffffff168152602001908152602001600020600201600084815260200190815260200160002060006101000a81548160ff0219169083151502179055505050565b6040518060a0016040528060008152602001606081526020016060815260200160608152602001606081525090565b828054600181600116156101000203166002900490600052602060002090601f016020900481019282601f10610f7e57805160ff1916838001178555610fac565b82800160010185558215610fac579182015b82811115610fab578251825591602001919060010190610f90565b5b509050610fb991906110c6565b5090565b828054828255906000526020600020906003016004900481019282156110685791602002820160005b8382111561103257835183826101000a81548167ffffffffffffffff021916908367ffffffffffffffff1602179055509260200192600801602081600701049283019260010302610fe6565b80156110665782816101000a81549067ffffffffffffffff0219169055600801602081600701049283019260010302611032565b505b50905061107591906110eb565b5090565b8280548282559060005260206000209081019282156110b5579160200282015b828111156110b4578251825591602001919060010190611099565b5b5090506110c29190611122565b5090565b6110e891905b808211156110e45760008160009055506001016110cc565b5090565b90565b61111f91905b8082111561111b57600081816101000a81549067ffffffffffffffff0219169055506001016110f1565b5090565b90565b61114491905b80821115611140576000816000905550600101611128565b5090565b9056fea265627a7a72315820888e20a2eef09d9781e5f6cdcca3d4da63561ad44b95f4564cf5d620cf5fd80164736f6c63430005100032",
  "source": "// SPDX-License-Identifier: MIT\npragma solidity >=0.4.22 <0.8.0;\n\ncontract PollContract {\n\n    struct Poll {\n        uint256 id;\n        string question;\n        string thumbnail;\n        uint64[] votes;\n        bytes32[] options;\n    }\n\n    struct Voter{\n        address id;\n        uint256[] votedIds;\n        mapping(uint256 => bool) votedMap;\n    }\n\n    Poll[] private polls;\n    mapping( address => Voter) private voters;\n    event PollCreated(uint256 _pollId);\n\n    function createPoll(string memory _question, string memory _thumb, bytes32[] memory _options) public {\n        require(bytes(_question).length > 0, \"Empty question\");\n        require(_options.length > 1, \"At least 2 options required\");\n\n        uint256 pollId = polls.length;\n\n        Poll memory newPoll = Poll({\n            id: pollId,\n            question: _question,\n            thumbnail: _thumb,\n            options: _options,\n            votes: new uint64[](_options.length)\n        });\n\n        polls.push(newPoll);\n        emit PollCreated(pollId);\n    }\n\n    function getPoll(uint256 _pollId) external view returns(uint256, string memory, string memory, uint64[] memory, bytes32[] memory){\n        require(_pollId < polls.length && _pollId >=0, \"No poll found\");\n        return (\n            polls[_pollId].id,\n            polls[_pollId].question,\n            polls[_pollId].thumbnail,\n            polls[_pollId].votes,\n            polls[_pollId].options\n        );\n    }\n\n    function vote(uint256 _pollId, uint64 _vote) external {\n        require(_pollId < polls.length, \"Poll does not exist\");\n        require(_vote < polls[_pollId].options.length, \"Invalid vote\");\n        require(voters[msg.sender].votedMap[_pollId] == false, \"You already voted\");\n\n        polls[_pollId].votes[_vote] += 1;\n        voters[msg.sender].votedIds.push(_pollId);\n        voters[msg.sender].votedMap[_pollId] = true;\n    }\n\n    function getVoter(address _voterId) external view returns (address, uint256[] memory) {\n        return (\n            voters[_voterId].id,\n            voters[_voterId].votedIds\n            );\n\n    }\n\n    function getTotalVotes() external view returns(uint256) {\n        return polls.length;\n    }\n}\n",
  "sourcePath": "/home/zandor/Workspace/Ethereum/bc-poll/ethereum/contracts/Poll.sol",
  "compiler": {
    "name": "solc",
    "version": "0.5.16+commit.9c3226ce.Emscripten.clang"
  },
  "schemaVersion": "3.3.2",
  "updatedAt": "2020-12-14T10:30:58.944Z",
  "networkType": "ethereum",
  "devdoc": {
    "methods": {}
  },
  "userdoc": {
    "methods": {}
  }
}